{
  "contractName": "SignatureBase",
  "abi": [
    {
      "constant": true,
      "inputs": [
        {
          "name": "",
          "type": "uint256"
        }
      ],
      "name": "signatures",
      "outputs": [
        {
          "name": "signer",
          "type": "address"
        },
        {
          "name": "deviceId",
          "type": "uint256"
        },
        {
          "name": "expiryTime",
          "type": "uint256"
        },
        {
          "name": "revoked",
          "type": "bool"
        }
      ],
      "payable": false,
      "stateMutability": "view",
      "type": "function"
    },
    {
      "constant": true,
      "inputs": [
        {
          "name": "",
          "type": "uint256"
        }
      ],
      "name": "deviceSignatureCount",
      "outputs": [
        {
          "name": "",
          "type": "uint256"
        }
      ],
      "payable": false,
      "stateMutability": "view",
      "type": "function"
    },
    {
      "anonymous": false,
      "inputs": [
        {
          "indexed": true,
          "name": "signatureId",
          "type": "uint256"
        },
        {
          "indexed": true,
          "name": "deviceId",
          "type": "uint256"
        },
        {
          "indexed": true,
          "name": "signer",
          "type": "address"
        },
        {
          "indexed": false,
          "name": "expiryTime",
          "type": "uint256"
        }
      ],
      "name": "DeviceSigned",
      "type": "event"
    },
    {
      "anonymous": false,
      "inputs": [
        {
          "indexed": true,
          "name": "signatureId",
          "type": "uint256"
        },
        {
          "indexed": true,
          "name": "deviceId",
          "type": "uint256"
        }
      ],
      "name": "SignatureRevoked",
      "type": "event"
    },
    {
      "constant": false,
      "inputs": [
        {
          "name": "_deviceId",
          "type": "uint256"
        },
        {
          "name": "_expiryTime",
          "type": "uint256"
        }
      ],
      "name": "signDevice",
      "outputs": [
        {
          "name": "",
          "type": "uint256"
        }
      ],
      "payable": false,
      "stateMutability": "nonpayable",
      "type": "function"
    },
    {
      "constant": false,
      "inputs": [
        {
          "name": "_signatureId",
          "type": "uint256"
        }
      ],
      "name": "revokeSignature",
      "outputs": [],
      "payable": false,
      "stateMutability": "nonpayable",
      "type": "function"
    }
  ],
  "bytecode": "0x608060405234801561001057600080fd5b506106b9806100206000396000f3fe608060405260043610610062576000357c0100000000000000000000000000000000000000000000000000000000900463ffffffff1680633da1f79a146100675780638be10194146100a2578063aa554c9d14610136578063b0bd9fda1461018f575b600080fd5b34801561007357600080fd5b506100a06004803603602081101561008a57600080fd5b81019080803590602001909291905050506101de565b005b3480156100ae57600080fd5b506100db600480360360208110156100c557600080fd5b8101908080359060200190929190505050610451565b604051808573ffffffffffffffffffffffffffffffffffffffff1673ffffffffffffffffffffffffffffffffffffffff1681526020018481526020018381526020018215151515815260200194505050505060405180910390f35b34801561014257600080fd5b506101796004803603604081101561015957600080fd5b8101908080359060200190929190803590602001909291905050506104bd565b6040518082815260200191505060405180910390f35b34801561019b57600080fd5b506101c8600480360360208110156101b257600080fd5b8101908080359060200190929190505050610634565b6040518082815260200191505060405180910390f35b3373ffffffffffffffffffffffffffffffffffffffff1660008281548110151561020457fe5b906000526020600020906004020160000160009054906101000a900473ffffffffffffffffffffffffffffffffffffffff1673ffffffffffffffffffffffffffffffffffffffff161415156102e7576040517f08c379a00000000000000000000000000000000000000000000000000000000081526004018080602001828103825260218152602001807f4f6e6c7920666f722063726561746f72206f6620746865207369676e6174757281526020017f650000000000000000000000000000000000000000000000000000000000000081525060400191505060405180910390fd5b600015156000828154811015156102fa57fe5b906000526020600020906004020160030160009054906101000a900460ff1615151415156103b6576040517f08c379a00000000000000000000000000000000000000000000000000000000081526004018080602001828103825260248152602001807f5369676e6174757265206d7573746e2774206265207265766f6b656420616c7281526020017f656164790000000000000000000000000000000000000000000000000000000081525060400191505060405180910390fd5b600080828154811015156103c657fe5b9060005260206000209060040201905060018160030160006101000a81548160ff021916908315150217905550600160008260010154815260200190815260200160002060008154809291906001900391905055508060010154827ff93d5095ac7696e643e1fa0aa35d622f4a13e11f4e199f30794679dcdcdb973760405160405180910390a35050565b60008181548110151561046057fe5b90600052602060002090600402016000915090508060000160009054906101000a900473ffffffffffffffffffffffffffffffffffffffff16908060010154908060020154908060030160009054906101000a900460ff16905084565b60006104c761064c565b6080604051908101604052803373ffffffffffffffffffffffffffffffffffffffff168152602001858152602001848152602001600015158152509050600060016000839080600181540180825580915050906001820390600052602060002090600402016000909192909190915060008201518160000160006101000a81548173ffffffffffffffffffffffffffffffffffffffff021916908373ffffffffffffffffffffffffffffffffffffffff160217905550602082015181600101556040820151816002015560608201518160030160006101000a81548160ff021916908315150217905550505003905060016000868152602001908152602001600020600081548092919060010191905055503373ffffffffffffffffffffffffffffffffffffffff1685827f3739f348a11e3a029a385b4746ea6edba7f01ceec207010638e9d17862b78c40876040518082815260200191505060405180910390a4809250505092915050565b60016020528060005260406000206000915090505481565b608060405190810160405280600073ffffffffffffffffffffffffffffffffffffffff1681526020016000815260200160008152602001600015158152509056fea165627a7a72305820542949aff65eaf0bae310307fe95675f3e51a2b11af92b364ff889e715a34d6d0029",
  "source": "pragma solidity ^0.5.0;\n\nimport \"./MerkleProof.sol\";\nimport \"./ECRecovery.sol\";\n\n/**\n * @title Provides base functionalities for entities.\n */\ncontract EntityBase {\n    /// @dev Entity in the device management system.\n    struct Entity {\n        // Arbitary data in case entity wants to have some public information available.\n        string data;\n    }\n\n    /// @notice Maps owner to an Entity structure.\n    mapping (address => Entity) public ownerToEntity;\n\n    /// @dev Fired on entity data update.\n    event EntityDataUpdated(address indexed owner, string newData);\n\n    /**\n     * @notice Update entity data.\n     * @param _data Entity data.\n     */\n    function updateEntityData(string memory _data) public {\n        ownerToEntity[msg.sender].data = _data;\n\n        emit EntityDataUpdated(msg.sender, _data);\n    }\n}\n\n/**\n * @title Provides base functionalities for devices.\n */\ncontract DeviceBase {\n    /// @dev Main device structucture.\n    struct Device {\n        // Ethereum address of a device owner.\n        address owner;\n\n        // Unique device identifier. Can hold anything that fits into 32 bytes. Different from device ID.\n        // Supposed to be a public key or a representation of one, such as fingerprint of RSA/ECC \n        // public key or simply an Ethereum address. To make identifier be an Ethereum address, \n        // use secp256k1 curve to generate public and private key pair, run keccak256 hash function\n        // on public key and take last 20 bytes of generated hash to get Ethereum address.\n        // If a device wants to be it's own entity, use same address as in owner property.\n        bytes32 identifier;\n        \n        // Merkle root hash of metadata or simple hash of concatenated data.\n        // It is recommended to use Merkle tree to store information on device as it enables to \n        // prove membership of specific data by providing Merkle proof without revealing whole dataset.\n        bytes32 metadataHash;\n\n        // Holds a hash of actual firmware hash. Actual firmware hash is not supposed to be stored.\n        // Plain text or hash would expose data that is meant to be private, so \"hash of hash\" principle \n        // gives privacy and makes integrity verification possible.\n        bytes32 firmwareHash;\n\n        // Additional data linked to device. Can be used to store hash of encrypted firmware on IPFS.\n        //string offchainLink;\n\n        // Full public key (even though parties can exchange public key other ways then use\n        // blockchain to verify.)\n        //string publicKey;\n    }\n    \n    /// @notice State variable for storing devices. Index in the array is also a device ID.\n    /// Array can hold a maximum of 2^256-1 entries.\n    Device[] public devices;\n\n    /// @notice Keeps track of total devices for each owner.\n    mapping (address => uint) public ownerDeviceCount;\n\n    /// @dev Fired on creation of new device.\n    event DeviceCreated(uint indexed deviceId, address indexed owner, bytes32 identifier, bytes32 metadataHash, bytes32 firmwareHash);\n\n    /// @dev Modifier for ensuring that the message sender is owner of provided device ID.\n    modifier onlyOwnerOf(uint _deviceId) {\n        require(devices[_deviceId].owner == msg.sender, \"Only for device owner\");\n        _;\n    }\n\n    /**\n     * @notice Creates and saves device into storage. Emits DeviceCreated. \n     * @param _identifier Unique device identifier, such as fingerprint of RSA/ECC public key or Ethereum address (recommended).\n     * @param _metadataHash Merkle root hash of metadata (recommended) or simple hash of concatenated metadata.\n     * @param _firmwareHash Hash of actual firmware hash.\n     * @return Created device ID.\n     */\n    function createDevice(bytes32 _identifier, bytes32 _metadataHash, bytes32 _firmwareHash) public returns (uint) {\n        Device memory newDevice = Device(msg.sender, _identifier, _metadataHash, _firmwareHash);\n        uint deviceId = devices.push(newDevice) - 1;\n        ownerDeviceCount[msg.sender]++;\n\n        emit DeviceCreated(deviceId, msg.sender, _identifier, _metadataHash, _firmwareHash);\n        return deviceId;\n    }\n}\n\n/**\n * @title Provides extra functionalities for devices.\n */\ncontract DeviceHelper is DeviceBase {\n   /**\n     * @notice Gets all devices owned by specified address. \n     * @dev Use this function instead of filtering DeviceCreated event since devices could have been transferred between owners.\n     * @param _owner Owner address.\n     * @return Array of device IDs.\n     */\n    function getDevicesByOwner(address _owner) public view returns (uint[] memory) {\n        uint[] memory deviceIds = new uint[](ownerDeviceCount[_owner]);\n        uint counter = 0;\n        for (uint i = 0; i < devices.length; i++) {\n            if (devices[i].owner == _owner) {\n                deviceIds[counter] = i;\n                counter++;\n            }\n        }\n        return deviceIds;\n    }\n\n    /**\n     * @notice Checks if device is also an entity. \n     * @param _deviceId ID of a  device.\n     * @return Boolean status.\n     */\n    function isDeviceAnEntity(uint _deviceId) public view returns (bool) {\n        return devices[_deviceId].owner == address(uint160(uint256(devices[_deviceId].identifier)));\n    }\n\n    /**\n     * @notice Checks if provided leaf is a member of metadata contained in Merkle tree. \n     * Assumes that each pair of leaves and each pair of pre-images are sorted.\n     * @param _deviceId ID of a device containing metadata hash.\n     * @param _proof Merkle proof containing sibling hashes on the branch from the leaf to the root of the Merkle tree.\n     * @param _leaf Leaf of Merkle tree.\n     * @return Boolean status.\n     */\n    function isValidMetadataMember(uint _deviceId, bytes32[] memory _proof, bytes32 _leaf) public view returns (bool) {\n        return MerkleProof.verifyProof(_proof, devices[_deviceId].metadataHash, _leaf);\n    }\n\n    /**\n     * @notice Checks if provided firmware hash is equal to firmware hash device property. \n     * @param _deviceId ID of a device containing firmware hash.\n     * @param _firmwareHash Firmware hash (not the actual hash).\n     * @return Boolean status.\n     */\n    function isValidFirmwareHash(uint _deviceId, bytes32 _firmwareHash) public view returns (bool) {\n        return devices[_deviceId].firmwareHash == _firmwareHash;\n    }\n\n    /**\n     * @notice Validate authenticity of message signed by Etherium private key.\n     * On-chain validation is available only for Ethereum signed messages.\n     * @param _deviceId ID of a device that signed the message.\n     * @param _messageHash Hash of sent message.\n     * @param _signature Signature generated using web3.eth.sign().\n     * @return Boolean status.\n     */\n    function isValidEthMessage(uint _deviceId, bytes32 _messageHash, bytes memory _signature) public view returns (bool) {\n        return ECRecovery.recover(_messageHash, _signature) == address(uint160(uint256(devices[_deviceId].identifier)));\n    }\n}\n\n/**\n * @title Provides base functionalities for signatures.\n */\ncontract SignatureBase {\n    /// @dev Main signature structucture.\n    struct Signature {\n        // Ethereum address of the signer.\n        address signer;\n\n        // ID of device to sign.\n        uint deviceId;\n\n        // Using 256 bits ensures no overflow on year 2038 (Unix seconds).\n        uint expiryTime;\n\n        // Updates to true once signer decides to revoke signature.\n        bool revoked;\n    }\n\n    /// @notice State variable for storing signatures. Index in the array is also a signature ID.\n    /// Array can hold a maximum of 2^256-1 entries.\n    Signature[] public signatures;\n\n    /// @notice Keeps track of total signatures for each device.\n    mapping (uint => uint) public deviceSignatureCount;\n    \n    /// @dev Fired when an address signs a device.\n    event DeviceSigned(uint indexed signatureId, uint indexed deviceId, address indexed signer, uint expiryTime);\n\n    /// @dev Fired when signature is revoked.\n    event SignatureRevoked(uint indexed signatureId, uint indexed deviceId);\n\n    /// @dev Modifier for ensuring that the device hasn't been signed already.\n    modifier notSigned(uint _deviceId) {\n        require(deviceSignatureCount[_deviceId] == 0, \"Must not be signed\");\n        _;\n    }\n\n    /**\n     * @notice Signs a device and signature into storage. Emits DeviceSigned. \n     * @param _deviceId ID of to be signed device.\n     * @param _expiryTime Expiry time in Unix seconds.\n     * @return Created signature ID.\n     */\n    function signDevice(uint _deviceId, uint _expiryTime) public returns (uint) {\n        Signature memory signature = Signature(msg.sender, _deviceId, _expiryTime, false);\n        uint signatureId = signatures.push(signature) - 1;\n        deviceSignatureCount[_deviceId]++;\n\n        emit DeviceSigned(signatureId, _deviceId, msg.sender, _expiryTime);\n        return signatureId;\n    }\n\n    /**\n     * @notice Revokes a signature. Emits SignatureRevoked. \n     * @param _signatureId ID of to be revoked signature.\n     */\n    function revokeSignature(uint _signatureId) public {\n        require(signatures[_signatureId].signer == msg.sender, \"Only for creator of the signature\");\n        require(signatures[_signatureId].revoked == false, \"Signature mustn't be revoked already\");\n        Signature storage signature = signatures[_signatureId];\n        signature.revoked = true;\n        deviceSignatureCount[signature.deviceId]--;\n\n        emit SignatureRevoked(_signatureId, signature.deviceId);\n    }\n}\n\n/**\n * @title Provides extra functionalities for signatures.\n */\ncontract SignatureHelper is SignatureBase {\n    /**\n     * @notice Gets all signatures for specific device. \n     * @dev Use this function instead of filtering DeviceSigned event since signatures could have been revoked.\n     * @param _deviceId ID of a device.\n     * @return Array of signature IDs.\n     */\n    function getActiveSignaturesForDevice(uint _deviceId) public view returns (uint[] memory) {\n        uint[] memory signatureIds = new uint[](deviceSignatureCount[_deviceId]);\n        uint counter = 0;\n        for (uint i = 0; i < signatures.length; i++) {\n            if (signatures[i].deviceId == _deviceId && signatures[i].revoked == false) {\n                signatureIds[counter] = i;\n                counter++;\n            }\n        }\n        return signatureIds;\n    }\n}\n\n/**\n * @title Enriches devices giving them option to be updated only if not signed already.\n */\ncontract DeviceUpdatable is DeviceHelper, SignatureHelper {\n    /// @dev Fired on device ownership transfer, keeps track of historical device owners.\n    event DeviceTransfered(uint indexed deviceId, address oldOwner, address newOwner);\n    \n    /// @dev Fired on device property update, keeps track of historical property values.\n    event DevicePropertyUpdated(uint indexed deviceId, bytes32 indexed property, bytes32 newValue);\n\n    /**\n     * @notice Transfer device ownership from one external account to another. Emits DeviceTransfered.\n     * @param _deviceId ID of to be transfered device.\n     * @param _to Address of new owner.\n     */\n    function transferDevice(uint _deviceId, address _to) public onlyOwnerOf(_deviceId) notSigned(_deviceId) {\n        address currentOwner = devices[_deviceId].owner;\n        devices[_deviceId].owner = _to;\n        ownerDeviceCount[msg.sender]--;\n        ownerDeviceCount[_to]++;\n\n        emit DeviceTransfered(_deviceId, currentOwner, _to);\n    } \n\n    /**\n     * @notice Update device with new identifier. Emits DevicePropertyUpdated.\n     * @param _deviceId ID of a device.\n     * @param _newIdentifier New identifier.\n     */\n    function updateIdentifier(uint _deviceId, bytes32 _newIdentifier) public onlyOwnerOf(_deviceId) notSigned(_deviceId) {\n        devices[_deviceId].identifier = _newIdentifier;\n\n        emit DevicePropertyUpdated(_deviceId, \"identifier\", _newIdentifier);\n    }\n\n    /**\n     * @notice Update device with new metadata hash. Emits DevicePropertyUpdated.\n     * @param _deviceId ID of a device.\n     * @param _newMetadataHash New metadata hash.\n     */\n    function updateMetadataHash(uint _deviceId, bytes32 _newMetadataHash) public onlyOwnerOf(_deviceId) notSigned(_deviceId) {\n        devices[_deviceId].metadataHash = _newMetadataHash;\n\n        emit DevicePropertyUpdated(_deviceId, \"metadata\", _newMetadataHash);\n    }\n\n    /**\n     * @notice Update device with new firmware hash. Emits DevicePropertyUpdated.\n     * @param _deviceId ID of a device.\n     * @param _newFirmwareHash New firmware hash.\n     */\n    function updateFirmwareHash(uint _deviceId, bytes32 _newFirmwareHash) public onlyOwnerOf(_deviceId) notSigned(_deviceId) {\n        devices[_deviceId].firmwareHash = _newFirmwareHash;\n\n        emit DevicePropertyUpdated(_deviceId, \"firmware\", _newFirmwareHash);\n    }\n}\n\n/// @title Device manager core contract.\ncontract DeviceManager is EntityBase, DeviceUpdatable {\n    /// @dev Merges contracts.\n}\n",
  "sourcePath": "E:/IOT Device Manager/src/contracts/DeviceManager.sol",
  "compiler": {
    "name": "solc",
    "version": "0.5.0+commit.1d4f565a.Emscripten.clang"
  },
  "schemaVersion": "3.0.2",
  "updatedAt": "2023-04-13T06:30:47.675Z",
  "devdoc": {
    "methods": {
      "revokeSignature(uint256)": {
        "params": {
          "_signatureId": "ID of to be revoked signature."
        }
      },
      "signDevice(uint256,uint256)": {
        "params": {
          "_deviceId": "ID of to be signed device.",
          "_expiryTime": "Expiry time in Unix seconds."
        },
        "return": "Created signature ID."
      }
    },
    "title": "Provides base functionalities for signatures."
  },
  "userdoc": {
    "methods": {
      "revokeSignature(uint256)": {
        "notice": "Revokes a signature. Emits SignatureRevoked. "
      },
      "signDevice(uint256,uint256)": {
        "notice": "Signs a device and signature into storage. Emits DeviceSigned. "
      }
    }
  }
}